{
  "_format": "hh-sol-artifact-1",
  "contractName": "Transfer",
  "sourceName": "contracts/Transfer.sol",
  "abi": [
    {
      "inputs": [],
      "stateMutability": "nonpayable",
      "type": "constructor"
    },
    {
      "anonymous": false,
      "inputs": [
        {
          "indexed": true,
          "internalType": "address",
          "name": "previousOwner",
          "type": "address"
        },
        {
          "indexed": true,
          "internalType": "address",
          "name": "newOwner",
          "type": "address"
        }
      ],
      "name": "OwnershipTransferred",
      "type": "event"
    },
    {
      "inputs": [
        {
          "internalType": "uint256",
          "name": "amount",
          "type": "uint256"
        }
      ],
      "name": "get",
      "outputs": [],
      "stateMutability": "payable",
      "type": "function"
    },
    {
      "inputs": [
        {
          "internalType": "address",
          "name": "from",
          "type": "address"
        },
        {
          "internalType": "address",
          "name": "to",
          "type": "address"
        },
        {
          "internalType": "uint256",
          "name": "amount",
          "type": "uint256"
        }
      ],
      "name": "give",
      "outputs": [],
      "stateMutability": "payable",
      "type": "function"
    },
    {
      "inputs": [],
      "name": "owner",
      "outputs": [
        {
          "internalType": "address",
          "name": "",
          "type": "address"
        }
      ],
      "stateMutability": "view",
      "type": "function"
    },
    {
      "inputs": [],
      "name": "renounceOwnership",
      "outputs": [],
      "stateMutability": "nonpayable",
      "type": "function"
    },
    {
      "inputs": [
        {
          "internalType": "address",
          "name": "setter",
          "type": "address"
        },
        {
          "internalType": "uint256",
          "name": "amount",
          "type": "uint256"
        }
      ],
      "name": "setAmount",
      "outputs": [],
      "stateMutability": "nonpayable",
      "type": "function"
    },
    {
      "inputs": [
        {
          "internalType": "address",
          "name": "newOwner",
          "type": "address"
        }
      ],
      "name": "transferOwnership",
      "outputs": [],
      "stateMutability": "nonpayable",
      "type": "function"
    }
  ],
  "bytecode": "0x608060405234801561001057600080fd5b5061002d61002261003260201b60201c565b61003a60201b60201c565b6100fe565b600033905090565b60008060009054906101000a900473ffffffffffffffffffffffffffffffffffffffff169050816000806101000a81548173ffffffffffffffffffffffffffffffffffffffff021916908373ffffffffffffffffffffffffffffffffffffffff1602179055508173ffffffffffffffffffffffffffffffffffffffff168173ffffffffffffffffffffffffffffffffffffffff167f8be0079c531659141344cd1fd0a4f28419497f9722a3daafe3b4186f6b6457e060405160405180910390a35050565b610aa08061010d6000396000f3fe6080604052600436106100555760003560e01c8063715018a61461005a5780638da5cb5b146100715780639507d39a1461009c578063d2fafb19146100b8578063ec8b283c146100e1578063f2fde38b146100fd575b600080fd5b34801561006657600080fd5b5061006f610126565b005b34801561007d57600080fd5b5061008661013a565b604051610093919061061f565b60405180910390f35b6100b660048036038101906100b19190610675565b610163565b005b3480156100c457600080fd5b506100df60048036038101906100da91906106ce565b610166565b005b6100fb60048036038101906100f6919061070e565b6102bb565b005b34801561010957600080fd5b50610124600480360381019061011f9190610761565b610411565b005b61012e610494565b6101386000610512565b565b60008060009054906101000a900473ffffffffffffffffffffffffffffffffffffffff16905090565b50565b61016e610494565b804710156101b1576040517f08c379a00000000000000000000000000000000000000000000000000000000081526004016101a890610811565b60405180910390fd5b6000600160008473ffffffffffffffffffffffffffffffffffffffff1673ffffffffffffffffffffffffffffffffffffffff168152602001908152602001600020541480156102005750600081115b156102b75780600160008473ffffffffffffffffffffffffffffffffffffffff1673ffffffffffffffffffffffffffffffffffffffff1681526020019081526020016000208190555060008273ffffffffffffffffffffffffffffffffffffffff168260405161026f90610862565b60006040518083038185875af1925050503d80600081146102ac576040519150601f19603f3d011682016040523d82523d6000602084013e6102b1565b606091505b50509050505b5050565b8273ffffffffffffffffffffffffffffffffffffffff163373ffffffffffffffffffffffffffffffffffffffff160361040c57808373ffffffffffffffffffffffffffffffffffffffff16311015610348576040517f08c379a000000000000000000000000000000000000000000000000000000000815260040161033f906108e9565b60405180910390fd5b80600160003373ffffffffffffffffffffffffffffffffffffffff1673ffffffffffffffffffffffffffffffffffffffff16815260200190815260200160002060008282546103979190610938565b9250508190555060003073ffffffffffffffffffffffffffffffffffffffff16826040516103c490610862565b60006040518083038185875af1925050503d8060008114610401576040519150601f19603f3d011682016040523d82523d6000602084013e610406565b606091505b50509050505b505050565b610419610494565b600073ffffffffffffffffffffffffffffffffffffffff168173ffffffffffffffffffffffffffffffffffffffff1603610488576040517f08c379a000000000000000000000000000000000000000000000000000000000815260040161047f906109de565b60405180910390fd5b61049181610512565b50565b61049c6105d6565b73ffffffffffffffffffffffffffffffffffffffff166104ba61013a565b73ffffffffffffffffffffffffffffffffffffffff1614610510576040517f08c379a000000000000000000000000000000000000000000000000000000000815260040161050790610a4a565b60405180910390fd5b565b60008060009054906101000a900473ffffffffffffffffffffffffffffffffffffffff169050816000806101000a81548173ffffffffffffffffffffffffffffffffffffffff021916908373ffffffffffffffffffffffffffffffffffffffff1602179055508173ffffffffffffffffffffffffffffffffffffffff168173ffffffffffffffffffffffffffffffffffffffff167f8be0079c531659141344cd1fd0a4f28419497f9722a3daafe3b4186f6b6457e060405160405180910390a35050565b600033905090565b600073ffffffffffffffffffffffffffffffffffffffff82169050919050565b6000610609826105de565b9050919050565b610619816105fe565b82525050565b60006020820190506106346000830184610610565b92915050565b600080fd5b6000819050919050565b6106528161063f565b811461065d57600080fd5b50565b60008135905061066f81610649565b92915050565b60006020828403121561068b5761068a61063a565b5b600061069984828501610660565b91505092915050565b6106ab816105fe565b81146106b657600080fd5b50565b6000813590506106c8816106a2565b92915050565b600080604083850312156106e5576106e461063a565b5b60006106f3858286016106b9565b925050602061070485828601610660565b9150509250929050565b6000806000606084860312156107275761072661063a565b5b6000610735868287016106b9565b9350506020610746868287016106b9565b925050604061075786828701610660565b9150509250925092565b6000602082840312156107775761077661063a565b5b6000610785848285016106b9565b91505092915050565b600082825260208201905092915050565b7f4163636f756e7420616d6f756e74206e6f7420656e6f75676820746f2073746160008201527f72742067616d6500000000000000000000000000000000000000000000000000602082015250565b60006107fb60278361078e565b91506108068261079f565b604082019050919050565b6000602082019050818103600083015261082a816107ee565b9050919050565b600081905092915050565b50565b600061084c600083610831565b91506108578261083c565b600082019050919050565b600061086d8261083f565b9150819050919050565b7f4e6f7420616c6c6f7765642c2074686520616d6f756e7420697320746f6f206c60008201527f6172676500000000000000000000000000000000000000000000000000000000602082015250565b60006108d360248361078e565b91506108de82610877565b604082019050919050565b60006020820190508181036000830152610902816108c6565b9050919050565b7f4e487b7100000000000000000000000000000000000000000000000000000000600052601160045260246000fd5b60006109438261063f565b915061094e8361063f565b925082820390508181111561096657610965610909565b5b92915050565b7f4f776e61626c653a206e6577206f776e657220697320746865207a65726f206160008201527f6464726573730000000000000000000000000000000000000000000000000000602082015250565b60006109c860268361078e565b91506109d38261096c565b604082019050919050565b600060208201905081810360008301526109f7816109bb565b9050919050565b7f4f776e61626c653a2063616c6c6572206973206e6f7420746865206f776e6572600082015250565b6000610a3460208361078e565b9150610a3f826109fe565b602082019050919050565b60006020820190508181036000830152610a6381610a27565b905091905056fea26469706673582212200287b0bc601c01a126011f845a6a9c00fb1f835036d2088b0e1a66abec94ce3864736f6c634300081c0033",
  "linkReferences": {},
  "deployedLinkReferences": {}
}